{
  "contractName": "LilScore",
  "abi": [
    {
      "constant": false,
      "inputs": [
        {
          "name": "name",
          "type": "string"
        }
      ],
      "name": "GetScore",
      "outputs": [
        {
          "name": "",
          "type": "int256"
        }
      ],
      "payable": false,
      "stateMutability": "nonpayable",
      "type": "function"
    },
    {
      "constant": false,
      "inputs": [
        {
          "name": "name",
          "type": "string"
        },
        {
          "name": "score",
          "type": "int256"
        }
      ],
      "name": "SetPlayerScore",
      "outputs": [],
      "payable": false,
      "stateMutability": "nonpayable",
      "type": "function"
    }
  ],
  "bytecode": "0x6060604052341561000f57600080fd5b6102b48061001e6000396000f30060606040526004361061004c576000357c0100000000000000000000000000000000000000000000000000000000900463ffffffff168063308d196414610051578063965ed5db146100c2575b600080fd5b341561005c57600080fd5b6100ac600480803590602001908201803590602001908080601f01602080910402602001604051908101604052809392919081815260200183838082843782019150505050505091905050610128565b6040518082815260200191505060405180910390f35b34156100cd57600080fd5b610126600480803590602001908201803590602001908080601f0160208091040260200160405190810160405280939291908181526020018383808284378201915050505050509190803590602001909190505061019c565b005b600080826040518082805190602001908083835b602083101515610161578051825260208201915060208101905060208303925061013c565b6001836020036101000a0380198251168184511680821785525050505050509050019150509081526020016040518091039020549050919050565b600080836040518082805190602001908083835b6020831015156101d557805182526020820191506020810190506020830392506101b0565b6001836020036101000a038019825116818451168082178552505050505050905001915050908152602001604051809103902054131561021457600080fd5b806000836040518082805190602001908083835b60208310151561024d5780518252602082019150602081019050602083039250610228565b6001836020036101000a03801982511681845116808217855250505050505090500191505090815260200160405180910390208190555050505600a165627a7a72305820c95f54323c5fef8c33f16046659b91cc1fa34c50b7f901e849b963a47d0320460029",
  "source": "pragma solidity ^0.4.4;\n\ncontract LilScore\n{\n\n  mapping( string => int ) PlayerScore;\n\n  function SetPlayerScore(string name, int score) {\n    if (PlayerScore[name]>0){\n      revert();\n    }\n    PlayerScore[name] = score;\n  }\n\n  function GetScore(string name) returns (int){\n    return PlayerScore[name];\n  }\n\n\n}\n",
  "sourcePath": "/Users/AMC/Desktop/solidemo/LilScore/contracts/LilScore.sol",
  "compiler": {
    "name": "solc",
    "version": "0.4.18+commit.9cf6e910.Emscripten.clang"
  },
  "schemaVersion": "1.0.1",
  "updatedAt": "2017-12-16T02:27:12.046Z"
}